S00B00005350492E737265632D
S11300000C9434000C943E000C943E000C943E007E
S11300100C943E000C943E000C943E000C943E0064
S11300200C943E000C943E000C943E000C943E0054
S11300300C943E000C943E000C943E000C943E0044
S11300400C943E000C943E000C943E000C943E0034
S11300500C943E000C943E000C943E000C943E0024
S11300600C943E000C943E0011241FBECFEFD8E048
S1130070DEBFCDBF0E9440000C9453000C940000DE
S11300808FEF8AB980EA84B981E58CBD87E48EBD9F
S11300908DB5811105C08EB58BB98DB58823D9F383
S10D00A080E090E00895F894FFCF8B
S9030000FC
