S0120000627574746F6E546573742E73726563D6
S11300000C9434000C943E000C943E000C943E007E
S11300100C943E000C943E000C943E000C943E0064
S11300200C943E000C943E000C943E000C943E0054
S11300300C943E000C943E000C943E000C943E0044
S11300400C943E000C943E000C943E000C943E0034
S11300500C943E000C943E000C943E000C943E0024
S11300600C943E000C943E0011241FBECFEFD8E048
S1130070DEBFCDBF0E9440000C9474000C940000BD
S1130080209821988FEF8AB99AEA85E52FEF18997D
S113009014C09BB93FE34DE053E031504040504021
S11300A0E1F700C000008BB93FE34DE053E031506D
S11300B040405040E1F700C000001999E8CF2BB947
S11300C03FE34DE053E0315040405040E1F700C081
S11300D000001BB83FE34DE053E031504040504036
S10F00E0E1F700C00000D3CFF894FFCF7C
S9030000FC
