S015000070696E6368616E67655F696E742E73726563B8
S11300000C9434000C943E000C943E000C944E006E
S11300100C943E000C943E000C943E000C943E0064
S11300200C943E000C943E000C943E000C943E0054
S11300300C943E000C943E000C943E000C943E0044
S11300400C943E000C943E000C943E000C943E0034
S11300500C943E000C943E000C943E000C943E0024
S11300600C943E000C943E0011241FBECFEFD8E048
S1130070DEBFCDBF0E9440000C9458000C940000D9
S11300802098289AE8E6F0E0808181608083EBE69E
S1130090F0E08081816080837894FFCF1F920F927B
S11300A00FB60F9211240F900FBE0F901F9018954A
S10700B0F894FFCFEE
S9030000FC
