:100000000C9434000C9449000C9449000C94490061
:100010000C9449000C9449000C9449000C9449003C
:100020000C9449000C9449000C9449000C9449002C
:100030000C9449000C9449000C9449000C9449001C
:100040000C9449000C9449000C9449000C9449000C
:100050000C9449000C9449000C9449000C944900FC
:100060000C9449000C94490011241FBECFEFD8E036
:10007000DEBFCDBF11E0A0E0B1E0E6E6F1E002C0F6
:1000800005900D92A832B107D9F70E9490000C9408
:10009000B1000C940000482F50E020E030E078E8F8
:1000A00063E107C00197F1F72F5F3F4F42175307F6
:1000B0001CF0872F962FF6CF089585B980E18BB974
:1000C00081E00E944B001BB881E00E944B00089524
:1000D00088E30E945D008EE00E945D0081E00E9446
:1000E0005D0080E80E945D00089585B980E38BB9CA
:1000F00081E00E944B0080E28BB981E00E944B00BE
:100100000895CF93DF93EC018881882331F0219605
:100110000E94750089918111FBCFDF91CF910895E5
:100120008FEF84B980E78AB982E00E944B000E9479
:10013000680080E890E00E945D0080E091E00E940D
:10014000810080EC90E00E945D008DE091E00E94D3
:10015000810081E090E00E945D0081E00E944B0000
:06016000E8CFF894FFCF88
:1001660057454C434F4D4520544F212000456D6265
:10017600656464656420636C6173732061742044F4
:080186004B4F50203A292000E4
:00000001FF
