:100000000C9434000C943E000C943E000C943E0082
:100010000C943E000C943E000C943E000C943E0068
:100020000C943E000C943E000C943E000C943E0058
:100030000C943E000C943E000C943E000C943E0048
:100040000C943E000C943E000C943E000C943E0038
:100050000C943E000C943E000C943E000C943E0028
:100060000C943E000C943E0011241FBECFEFD8E04C
:10007000DEBFCDBF0E9453000C945D000C940000C5
:100080008FEF80938500809384001092800081E040
:1000900080938100B09BFECF109285001092840067
:1000A00081E086BB08958FE084B9CFE0C5B90E9496
:0E00B000400015B80E944000F9CFF894FFCF31
:00000001FF
