S01700004269744D616E7570756C6174696F6E2E73726563F1
S11300000C9434000C943E000C943E000C943E007E
S11300100C943E000C943E000C943E000C943E0064
S11300200C943E000C943E000C943E000C943E0054
S11300300C943E000C943E000C943E000C943E0044
S11300400C943E000C943E000C943E000C943E0034
S11300500C943E000C943E000C943E000C943E0024
S11300600C943E000C943E0011241FBECFEFD8E048
S1130070DEBFCDBF0E9440000C949D000C94000094
S1130080529851988FEF84B92AEA95E5499916C098
S11300904A9914C085B93FE34DE053E031504040E4
S11300A05040E1F700C0000015B8EFE3FDE033E095
S11300B0E150F0403040E1F700C00000499B2AC005
S11300C04A9928C025B94FE35DE0E3E04150504030
S11300D0E040E1F700C0000015B8FFE33DE043E075
S11300E0F15030404040E1F700C0000095B95FE3B3
S11300F0EDE0F3E05150E040F040E1F700C00000D3
S113010015B83FE34DE053E0315040405040E1F733
S113011000C000004999BACF4A9BB8CF85B9E7EA35
S1130120F1E63197F1F700C0000015B8E7EAF1E60F
S11101303197F1F700C00000A9CFF894FFCF7B
S9030000FC
