:100000000C9434000C943E000C943E000C943E0082
:100010000C943E000C943E000C943E000C943E0068
:100020000C943E000C943E000C943E000C943E0058
:100030000C943E000C943E000C943E000C943E0048
:100040000C943E000C943E000C943E000C943E0038
:100050000C943E000C943E000C943E000C943E0028
:100060000C943E000C943E0011241FBECFEFD8E04C
:10007000DEBFCDBF0E9449000C9453000C940000D9
:100080008FEF86BD82E084BD85B314BC81E085BB63
:1000900008958FEF84B9CFEFC5B90E94400015B81D
:0A00A0000E944000F9CFF894FFCF52
:00000001FF
