S00E0000627574746F6E2E737265637A
S11300000C9434000C943E000C943E000C943E007E
S11300100C943E000C943E000C943E000C943E0064
S11300200C943E000C943E000C943E000C943E0054
S11300300C943E000C943E000C943E000C943E0044
S11300400C943E000C943E000C943E000C943E0034
S11300500C943E000C943E000C943E000C943E0024
S11300600C943E000C943E0011241FBECFEFD8E048
S1130070DEBFCDBF0E9440000C9472000C940000BF
S1130080209A21988FEF8AB92AEA95E5199915C023
S11300908BB93FE34DE053E0315040405040E1F72D
S11300A000C000001BB83FE34DE053E03150404036
S11300B05040E1F700C00000E9CF2BB93FE34DE029
S11300C053E0315040405040E1F700C000009BB97C
S11300D03FE34DE053E0315040405040E1F700C071
S10B00E00000D4CFF894FFCF17
S9030000FC
