S01500004578745F496E746572727570742E73726563B2
S11300000C9434000C944A000C943E000C943E0072
S11300100C943E000C943E000C943E000C943E0064
S11300200C943E000C943E000C943E000C943E0054
S11300300C943E000C943E000C943E000C943E0044
S11300400C943E000C943E000C943E000C943E0034
S11300500C943E000C943E000C943E000C943E0024
S11300600C943E000C943E0011241FBECFEFD8E048
S1130070DEBFCDBF0E9440000C9454000C940000DD
S113008052985A9AE9E6F0E0808181608083E89A88
S11300907894FFCF1F920F920FB60F9211240F90F6
S10F00A00FBE0F901F901895F894FFCF2E
S9030000FC
