:100000000C9434000C943E000C943E000C943E0082
:100010000C943E000C943E000C943E000C943E0068
:100020000C943E000C943E000C943E000C943E0058
:100030000C943E000C943E000C943E000C943E0048
:100040000C943E000C943E000C943E000C943E0038
:100050000C943E000C943E000C943E000C943E0028
:100060000C943E000C943E0011241FBECFEFD8E04C
:10007000DEBFCDBF0E9440000C9492000C940000A3
:10008000509852988FEF84B99AE03AEA25E5499959
:1000900017C04A9915C085B94FE35DE063E0415050
:1000A00050406040E1F700C0000015B8EFE3FDE00C
:1000B00043E0E150F0404040E1F700C00000E7CFEE
:1000C000499B17C04A9915C035B95FE36DE0E3E07D
:1000D00051506040E040E1F700C0000025B9FFE367
:1000E0004DE053E0F15040405040E1F700C00000C7
:1000F000CECF499904C04A9B02C095B9C8CF499B4D
:10010000C6CF4A9BC4CF85B9E7EAF1E63197F1F74C
:1001100000C0000015B8E7EAF1E63197F1F700C03A
:080120000000B5CFF894FFCFF9
:00000001FF
