S017000054696D65725F696E746572727570742E73726563C0
S11300000C9434000C943E000C943E000C943E007E
S11300100C943E000C943E000C943E000C943E0064
S11300200C943E000C943E000C943E000C943E0054
S11300300C943E000C943E000C944F000C943E0033
S11300400C943E000C943E000C943E000C943E0034
S11300500C943E000C943E000C943E000C943E0024
S11300600C943E000C943E0011241FBECFEFD8E048
S1130070DEBFCDBF0E9440000C9459000C940000D8
S113008084B5826084BD89EF87BDEEE6F0E08081AF
S113009082608083789485B5846085BDFFCF1F928C
S11300A00F920FB60F9211240F900FBE0F901F9056
S10900B01895F894FFCF3F
S9030000FC
