S01000004932435F726561642E737265635B
S11300000C9434000C943E000C943E000C943E007E
S11300100C943E000C943E000C943E000C943E0064
S11300200C943E000C943E000C943E000C943E0054
S11300300C943E000C943E000C943E000C943E0044
S11300400C943E000C943E000C943E000C943E0034
S11300500C943E000C943E000C943E000C943E0024
S11300600C943E000C943E0011241FBECFEFD8E048
S1130070DEBFCDBF0E945D000C9471000C940000A3
S11300801092B90087E48093B80084E08093BC00A8
S1130090089584EA8093BC00ECEBF0E0808188232F
S11300A0E9F308958093BB0084E88093BC00ECEBF3
S11300B0F0E080818823E9F308950E9440000E94C3
S11300C0490088E40E94520083EC99E00197F1F71B
S11300D000C0000089E40E94520084E98093BC00BF
S10900E0FFCFF894FFCFEE
S9030000FC
